{
  "_format": "hh-sol-artifact-1",
  "contractName": "MDWTicket",
  "sourceName": "contracts/Ticket1155.sol",
  "abi": [
    {
      "inputs": [],
      "stateMutability": "nonpayable",
      "type": "constructor"
    },
    {
      "anonymous": false,
      "inputs": [
        {
          "indexed": true,
          "internalType": "address",
          "name": "account",
          "type": "address"
        },
        {
          "indexed": true,
          "internalType": "address",
          "name": "operator",
          "type": "address"
        },
        {
          "indexed": false,
          "internalType": "bool",
          "name": "approved",
          "type": "bool"
        }
      ],
      "name": "ApprovalForAll",
      "type": "event"
    },
    {
      "anonymous": false,
      "inputs": [
        {
          "indexed": true,
          "internalType": "address",
          "name": "previousOwner",
          "type": "address"
        },
        {
          "indexed": true,
          "internalType": "address",
          "name": "newOwner",
          "type": "address"
        }
      ],
      "name": "OwnershipTransferred",
      "type": "event"
    },
    {
      "anonymous": false,
      "inputs": [
        {
          "indexed": false,
          "internalType": "address",
          "name": "account",
          "type": "address"
        }
      ],
      "name": "Paused",
      "type": "event"
    },
    {
      "anonymous": false,
      "inputs": [
        {
          "indexed": true,
          "internalType": "address",
          "name": "operator",
          "type": "address"
        },
        {
          "indexed": true,
          "internalType": "address",
          "name": "from",
          "type": "address"
        },
        {
          "indexed": true,
          "internalType": "address",
          "name": "to",
          "type": "address"
        },
        {
          "indexed": false,
          "internalType": "uint256[]",
          "name": "ids",
          "type": "uint256[]"
        },
        {
          "indexed": false,
          "internalType": "uint256[]",
          "name": "values",
          "type": "uint256[]"
        }
      ],
      "name": "TransferBatch",
      "type": "event"
    },
    {
      "anonymous": false,
      "inputs": [
        {
          "indexed": true,
          "internalType": "address",
          "name": "operator",
          "type": "address"
        },
        {
          "indexed": true,
          "internalType": "address",
          "name": "from",
          "type": "address"
        },
        {
          "indexed": true,
          "internalType": "address",
          "name": "to",
          "type": "address"
        },
        {
          "indexed": false,
          "internalType": "uint256",
          "name": "id",
          "type": "uint256"
        },
        {
          "indexed": false,
          "internalType": "uint256",
          "name": "value",
          "type": "uint256"
        }
      ],
      "name": "TransferSingle",
      "type": "event"
    },
    {
      "anonymous": false,
      "inputs": [
        {
          "indexed": false,
          "internalType": "string",
          "name": "value",
          "type": "string"
        },
        {
          "indexed": true,
          "internalType": "uint256",
          "name": "id",
          "type": "uint256"
        }
      ],
      "name": "URI",
      "type": "event"
    },
    {
      "anonymous": false,
      "inputs": [
        {
          "indexed": false,
          "internalType": "address",
          "name": "account",
          "type": "address"
        }
      ],
      "name": "Unpaused",
      "type": "event"
    },
    {
      "inputs": [
        {
          "internalType": "address",
          "name": "_address",
          "type": "address"
        }
      ],
      "name": "addAdmin",
      "outputs": [],
      "stateMutability": "nonpayable",
      "type": "function"
    },
    {
      "inputs": [
        {
          "internalType": "address",
          "name": "account",
          "type": "address"
        },
        {
          "internalType": "uint256",
          "name": "id",
          "type": "uint256"
        }
      ],
      "name": "balanceOf",
      "outputs": [
        {
          "internalType": "uint256",
          "name": "",
          "type": "uint256"
        }
      ],
      "stateMutability": "view",
      "type": "function"
    },
    {
      "inputs": [
        {
          "internalType": "address[]",
          "name": "accounts",
          "type": "address[]"
        },
        {
          "internalType": "uint256[]",
          "name": "ids",
          "type": "uint256[]"
        }
      ],
      "name": "balanceOfBatch",
      "outputs": [
        {
          "internalType": "uint256[]",
          "name": "",
          "type": "uint256[]"
        }
      ],
      "stateMutability": "view",
      "type": "function"
    },
    {
      "inputs": [
        {
          "internalType": "address",
          "name": "_owner",
          "type": "address"
        },
        {
          "internalType": "uint256",
          "name": "_id",
          "type": "uint256"
        }
      ],
      "name": "fetchItemsByAddress",
      "outputs": [
        {
          "internalType": "uint256[]",
          "name": "",
          "type": "uint256[]"
        }
      ],
      "stateMutability": "view",
      "type": "function"
    },
    {
      "inputs": [
        {
          "internalType": "address",
          "name": "account",
          "type": "address"
        },
        {
          "internalType": "uint256",
          "name": "id",
          "type": "uint256"
        },
        {
          "internalType": "uint256",
          "name": "amount",
          "type": "uint256"
        }
      ],
      "name": "increaseSupply",
      "outputs": [],
      "stateMutability": "nonpayable",
      "type": "function"
    },
    {
      "inputs": [
        {
          "internalType": "address",
          "name": "_address",
          "type": "address"
        }
      ],
      "name": "isAdmin",
      "outputs": [
        {
          "internalType": "bool",
          "name": "",
          "type": "bool"
        }
      ],
      "stateMutability": "view",
      "type": "function"
    },
    {
      "inputs": [
        {
          "internalType": "address",
          "name": "account",
          "type": "address"
        },
        {
          "internalType": "address",
          "name": "operator",
          "type": "address"
        }
      ],
      "name": "isApprovedForAll",
      "outputs": [
        {
          "internalType": "bool",
          "name": "",
          "type": "bool"
        }
      ],
      "stateMutability": "view",
      "type": "function"
    },
    {
      "inputs": [
        {
          "internalType": "uint256",
          "name": "tokenId",
          "type": "uint256"
        },
        {
          "internalType": "uint256",
          "name": "amount",
          "type": "uint256"
        }
      ],
      "name": "isEligible",
      "outputs": [
        {
          "internalType": "bool",
          "name": "",
          "type": "bool"
        }
      ],
      "stateMutability": "view",
      "type": "function"
    },
    {
      "inputs": [
        {
          "internalType": "address",
          "name": "account",
          "type": "address"
        },
        {
          "internalType": "uint256",
          "name": "amount",
          "type": "uint256"
        },
        {
          "internalType": "string",
          "name": "name",
          "type": "string"
        }
      ],
      "name": "mint",
      "outputs": [],
      "stateMutability": "nonpayable",
      "type": "function"
    },
    {
      "inputs": [
        {
          "internalType": "address",
          "name": "to",
          "type": "address"
        },
        {
          "internalType": "uint256[]",
          "name": "ids",
          "type": "uint256[]"
        },
        {
          "internalType": "uint256[]",
          "name": "amounts",
          "type": "uint256[]"
        }
      ],
      "name": "mintBatch",
      "outputs": [],
      "stateMutability": "nonpayable",
      "type": "function"
    },
    {
      "inputs": [],
      "name": "owner",
      "outputs": [
        {
          "internalType": "address",
          "name": "",
          "type": "address"
        }
      ],
      "stateMutability": "view",
      "type": "function"
    },
    {
      "inputs": [],
      "name": "pause",
      "outputs": [],
      "stateMutability": "nonpayable",
      "type": "function"
    },
    {
      "inputs": [],
      "name": "paused",
      "outputs": [
        {
          "internalType": "bool",
          "name": "",
          "type": "bool"
        }
      ],
      "stateMutability": "view",
      "type": "function"
    },
    {
      "inputs": [
        {
          "internalType": "address",
          "name": "_address",
          "type": "address"
        }
      ],
      "name": "removeAdmin",
      "outputs": [],
      "stateMutability": "nonpayable",
      "type": "function"
    },
    {
      "inputs": [],
      "name": "renounceOwnership",
      "outputs": [],
      "stateMutability": "nonpayable",
      "type": "function"
    },
    {
      "inputs": [
        {
          "internalType": "address",
          "name": "from",
          "type": "address"
        },
        {
          "internalType": "address",
          "name": "to",
          "type": "address"
        },
        {
          "internalType": "uint256[]",
          "name": "ids",
          "type": "uint256[]"
        },
        {
          "internalType": "uint256[]",
          "name": "amounts",
          "type": "uint256[]"
        },
        {
          "internalType": "bytes",
          "name": "data",
          "type": "bytes"
        }
      ],
      "name": "safeBatchTransferFrom",
      "outputs": [],
      "stateMutability": "nonpayable",
      "type": "function"
    },
    {
      "inputs": [
        {
          "internalType": "address",
          "name": "from",
          "type": "address"
        },
        {
          "internalType": "address",
          "name": "to",
          "type": "address"
        },
        {
          "internalType": "uint256",
          "name": "id",
          "type": "uint256"
        },
        {
          "internalType": "uint256",
          "name": "amount",
          "type": "uint256"
        },
        {
          "internalType": "bytes",
          "name": "data",
          "type": "bytes"
        }
      ],
      "name": "safeTransferFrom",
      "outputs": [],
      "stateMutability": "nonpayable",
      "type": "function"
    },
    {
      "inputs": [
        {
          "internalType": "address",
          "name": "operator",
          "type": "address"
        },
        {
          "internalType": "bool",
          "name": "approved",
          "type": "bool"
        }
      ],
      "name": "setApprovalForAll",
      "outputs": [],
      "stateMutability": "nonpayable",
      "type": "function"
    },
    {
      "inputs": [
        {
          "internalType": "bytes4",
          "name": "interfaceId",
          "type": "bytes4"
        }
      ],
      "name": "supportsInterface",
      "outputs": [
        {
          "internalType": "bool",
          "name": "",
          "type": "bool"
        }
      ],
      "stateMutability": "view",
      "type": "function"
    },
    {
      "inputs": [
        {
          "internalType": "uint256",
          "name": "tokenId",
          "type": "uint256"
        }
      ],
      "name": "totalSupplyOf",
      "outputs": [
        {
          "internalType": "uint256",
          "name": "",
          "type": "uint256"
        }
      ],
      "stateMutability": "view",
      "type": "function"
    },
    {
      "inputs": [
        {
          "internalType": "address",
          "name": "newOwner",
          "type": "address"
        }
      ],
      "name": "transferOwnership",
      "outputs": [],
      "stateMutability": "nonpayable",
      "type": "function"
    },
    {
      "inputs": [],
      "name": "unpause",
      "outputs": [],
      "stateMutability": "nonpayable",
      "type": "function"
    },
    {
      "inputs": [
        {
          "internalType": "string",
          "name": "uri",
          "type": "string"
        }
      ],
      "name": "updateUri",
      "outputs": [],
      "stateMutability": "nonpayable",
      "type": "function"
    },
    {
      "inputs": [
        {
          "internalType": "uint256",
          "name": "",
          "type": "uint256"
        }
      ],
      "name": "uri",
      "outputs": [
        {
          "internalType": "string",
          "name": "",
          "type": "string"
        }
      ],
      "stateMutability": "view",
      "type": "function"
    }
  ],
  "bytecode": "0x60806040523480156200001157600080fd5b506040518060600160405280602e8152602001620041f0602e91396200003d816200007f60201b60201c565b506000600360006101000a81548160ff021916908315150217905550620000796200006d6200009b60201b60201c565b620000a360201b60201c565b6200027e565b80600290805190602001906200009792919062000169565b5050565b600033905090565b6000600360019054906101000a900473ffffffffffffffffffffffffffffffffffffffff16905081600360016101000a81548173ffffffffffffffffffffffffffffffffffffffff021916908373ffffffffffffffffffffffffffffffffffffffff1602179055508173ffffffffffffffffffffffffffffffffffffffff168173ffffffffffffffffffffffffffffffffffffffff167f8be0079c531659141344cd1fd0a4f28419497f9722a3daafe3b4186f6b6457e060405160405180910390a35050565b828054620001779062000248565b90600052602060002090601f0160209004810192826200019b5760008555620001e7565b82601f10620001b657805160ff1916838001178555620001e7565b82800160010185558215620001e7579182015b82811115620001e6578251825591602001919060010190620001c9565b5b509050620001f69190620001fa565b5090565b5b8082111562000215576000816000905550600101620001fb565b5090565b7f4e487b7100000000000000000000000000000000000000000000000000000000600052602260045260246000fd5b600060028204905060018216806200026157607f821691505b6020821081141562000278576200027762000219565b5b50919050565b613f62806200028e6000396000f3fe608060405234801561001057600080fd5b50600436106101575760003560e01c8063715018a6116100c3578063d3fc98641161007c578063d3fc9864146103ae578063d81d0a15146103ca578063e985e9c5146103e6578063f09e82e214610416578063f242432a14610446578063f2fde38b1461046257610157565b8063715018a61461030057806375b0d9cd1461030a5780638456cb591461033a5780638da5cb5b14610344578063a22cb46514610362578063b9152d701461037e57610157565b80632eb2c2d6116101155780632eb2c2d6146102545780633f4ba83a146102705780634e1273f41461027a578063570b3c6a146102aa5780635c975abb146102c657806370480275146102e457610157565b8062fdd58e1461015c57806301ffc9a71461018c5780630e89341c146101bc5780631588cfa1146101ec5780631785f53c1461020857806324d7806c14610224575b600080fd5b610176600480360381019061017191906125e1565b61047e565b6040516101839190612630565b60405180910390f35b6101a660048036038101906101a191906126a3565b610547565b6040516101b391906126eb565b60405180910390f35b6101d660048036038101906101d19190612706565b610629565b6040516101e391906127cc565b60405180910390f35b610206600480360381019061020191906127ee565b6106bd565b005b610222600480360381019061021d9190612841565b61082d565b005b61023e60048036038101906102399190612841565b6109c2565b60405161024b91906126eb565b60405180910390f35b61026e60048036038101906102699190612a6b565b610a71565b005b610278610b12565b005b610294600480360381019061028f9190612bfd565b610b24565b6040516102a19190612d33565b60405180910390f35b6102c460048036038101906102bf9190612df6565b610c3d565b005b6102ce610c51565b6040516102db91906126eb565b60405180910390f35b6102fe60048036038101906102f99190612841565b610c68565b005b610308610cd6565b005b610324600480360381019061031f9190612706565b610cea565b6040516103319190612630565b60405180910390f35b610342610d07565b005b61034c610d19565b6040516103599190612e4e565b60405180910390f35b61037c60048036038101906103779190612e95565b610d43565b005b610398600480360381019061039391906125e1565b610d59565b6040516103a59190612d33565b60405180910390f35b6103c860048036038101906103c39190612ed5565b610e14565b005b6103e460048036038101906103df9190612f44565b610fb7565b005b61040060048036038101906103fb9190612fcf565b610fdf565b60405161040d91906126eb565b60405180910390f35b610430600480360381019061042b919061300f565b611073565b60405161043d91906126eb565b60405180910390f35b610460600480360381019061045b919061304f565b6110a0565b005b61047c60048036038101906104779190612841565b611141565b005b60008073ffffffffffffffffffffffffffffffffffffffff168373ffffffffffffffffffffffffffffffffffffffff1614156104ef576040517f08c379a00000000000000000000000000000000000000000000000000000000081526004016104e690613158565b60405180910390fd5b60008083815260200190815260200160002060008473ffffffffffffffffffffffffffffffffffffffff1673ffffffffffffffffffffffffffffffffffffffff16815260200190815260200160002054905092915050565b60007fd9b67a26000000000000000000000000000000000000000000000000000000007bffffffffffffffffffffffffffffffffffffffffffffffffffffffff1916827bffffffffffffffffffffffffffffffffffffffffffffffffffffffff1916148061061257507f0e89341c000000000000000000000000000000000000000000000000000000007bffffffffffffffffffffffffffffffffffffffffffffffffffffffff1916827bffffffffffffffffffffffffffffffffffffffffffffffffffffffff1916145b806106225750610621826111c5565b5b9050919050565b606060028054610638906131a7565b80601f0160208091040260200160405190810160405280929190818152602001828054610664906131a7565b80156106b15780601f10610686576101008083540402835291602001916106b1565b820191906000526020600020905b81548152906001019060200180831161069457829003601f168201915b50505050509050919050565b338073ffffffffffffffffffffffffffffffffffffffff166106dd610d19565b73ffffffffffffffffffffffffffffffffffffffff1614806107045750610703816109c2565b5b610743576040517f08c379a000000000000000000000000000000000000000000000000000000000815260040161073a90613225565b60405180910390fd5b60405160200161075290613276565b604051602081830303815290604052805190602001206006600085815260200190815260200160002060405160200161078b919061331f565b6040516020818303038152906040528051906020012014156107e2576040517f08c379a00000000000000000000000000000000000000000000000000000000081526004016107d990613382565b60405180910390fd5b6107fd8484846040518060200160405280600081525061122f565b8160096000858152602001908152602001600020600082825461082091906133d1565b9250508190555050505050565b6108356113e0565b60005b6004805490508110156109be578173ffffffffffffffffffffffffffffffffffffffff16600482815481106108705761086f613427565b5b9060005260206000200160009054906101000a900473ffffffffffffffffffffffffffffffffffffffff1673ffffffffffffffffffffffffffffffffffffffff1614156109ab57600460016004805490506108cb9190613456565b815481106108dc576108db613427565b5b9060005260206000200160009054906101000a900473ffffffffffffffffffffffffffffffffffffffff166004828154811061091b5761091a613427565b5b9060005260206000200160006101000a81548173ffffffffffffffffffffffffffffffffffffffff021916908373ffffffffffffffffffffffffffffffffffffffff16021790555060048054806109755761097461348a565b5b6001900381819060005260206000200160006101000a81549073ffffffffffffffffffffffffffffffffffffffff021916905590555b80806109b6906134b9565b915050610838565b5050565b6000806000905060005b600480549050811015610a67578373ffffffffffffffffffffffffffffffffffffffff1660048281548110610a0457610a03613427565b5b9060005260206000200160009054906101000a900473ffffffffffffffffffffffffffffffffffffffff1673ffffffffffffffffffffffffffffffffffffffff161415610a545760019150610a67565b8080610a5f906134b9565b9150506109cc565b5080915050919050565b610a7961145e565b73ffffffffffffffffffffffffffffffffffffffff168573ffffffffffffffffffffffffffffffffffffffff161480610abf5750610abe85610ab961145e565b610fdf565b5b610afe576040517f08c379a0000000000000000000000000000000000000000000000000000000008152600401610af590613574565b60405180910390fd5b610b0b8585858585611466565b5050505050565b610b1a6113e0565b610b22611788565b565b60608151835114610b6a576040517f08c379a0000000000000000000000000000000000000000000000000000000008152600401610b6190613606565b60405180910390fd5b6000835167ffffffffffffffff811115610b8757610b86612873565b5b604051908082528060200260200182016040528015610bb55781602001602082028036833780820191505090505b50905060005b8451811015610c3257610c02858281518110610bda57610bd9613427565b5b6020026020010151858381518110610bf557610bf4613427565b5b602002602001015161047e565b828281518110610c1557610c14613427565b5b60200260200101818152505080610c2b906134b9565b9050610bbb565b508091505092915050565b610c456113e0565b610c4e816117eb565b50565b6000600360009054906101000a900460ff16905090565b610c706113e0565b6004819080600181540180825580915050600190039060005260206000200160009091909190916101000a81548173ffffffffffffffffffffffffffffffffffffffff021916908373ffffffffffffffffffffffffffffffffffffffff16021790555050565b610cde6113e0565b610ce86000611805565b565b600060096000838152602001908152602001600020549050919050565b610d0f6113e0565b610d176118cb565b565b6000600360019054906101000a900473ffffffffffffffffffffffffffffffffffffffff16905090565b610d55610d4e61145e565b838361192e565b5050565b6060600080610d68858561047e565b905060008167ffffffffffffffff811115610d8657610d85612873565b5b604051908082528060200260200182016040528015610db45781602001602082028036833780820191505090505b5090506000600190505b828111610e075780828581518110610dd957610dd8613427565b5b602002602001018181525050600184610df291906133d1565b93508080610dff906134b9565b915050610dbe565b5080935050505092915050565b338073ffffffffffffffffffffffffffffffffffffffff16610e34610d19565b73ffffffffffffffffffffffffffffffffffffffff161480610e5b5750610e5a816109c2565b5b610e9a576040517f08c379a0000000000000000000000000000000000000000000000000000000008152600401610e9190613225565b60405180910390fd5b600782604051610eaa9190613657565b908152602001604051809103902060009054906101000a900460ff1615610f06576040517f08c379a0000000000000000000000000000000000000000000000000000000008152600401610efd906136ba565b60405180910390fd5b610f106005611a9b565b6000610f1c6005611ab1565b905082600660008381526020019081526020016000209080519060200190610f45929190612496565b506001600784604051610f589190613657565b908152602001604051809103902060006101000a81548160ff021916908315150217905550610f988582866040518060200160405280600081525061122f565b8360096000838152602001908152602001600020819055505050505050565b610fbf6113e0565b610fda83838360405180602001604052806000815250611abf565b505050565b6000600160008473ffffffffffffffffffffffffffffffffffffffff1673ffffffffffffffffffffffffffffffffffffffff16815260200190815260200160002060008373ffffffffffffffffffffffffffffffffffffffff1673ffffffffffffffffffffffffffffffffffffffff16815260200190815260200160002060009054906101000a900460ff16905092915050565b600080611080338561047e565b90508281101561109457600091505061109a565b60019150505b92915050565b6110a861145e565b73ffffffffffffffffffffffffffffffffffffffff168573ffffffffffffffffffffffffffffffffffffffff1614806110ee57506110ed856110e861145e565b610fdf565b5b61112d576040517f08c379a000000000000000000000000000000000000000000000000000000000815260040161112490613574565b60405180910390fd5b61113a8585858585611cec565b5050505050565b6111496113e0565b600073ffffffffffffffffffffffffffffffffffffffff168173ffffffffffffffffffffffffffffffffffffffff1614156111b9576040517f08c379a00000000000000000000000000000000000000000000000000000000081526004016111b09061374c565b60405180910390fd5b6111c281611805565b50565b60007f01ffc9a7000000000000000000000000000000000000000000000000000000007bffffffffffffffffffffffffffffffffffffffffffffffffffffffff1916827bffffffffffffffffffffffffffffffffffffffffffffffffffffffff1916149050919050565b600073ffffffffffffffffffffffffffffffffffffffff168473ffffffffffffffffffffffffffffffffffffffff16141561129f576040517f08c379a0000000000000000000000000000000000000000000000000000000008152600401611296906137de565b60405180910390fd5b60006112a961145e565b905060006112b685611f88565b905060006112c385611f88565b90506112d483600089858589612002565b8460008088815260200190815260200160002060008973ffffffffffffffffffffffffffffffffffffffff1673ffffffffffffffffffffffffffffffffffffffff168152602001908152602001600020600082825461133391906133d1565b925050819055508673ffffffffffffffffffffffffffffffffffffffff16600073ffffffffffffffffffffffffffffffffffffffff168473ffffffffffffffffffffffffffffffffffffffff167fc3d58168c5ae7397731d063d5bbf3d657854427343f4c083240f7aacaa2d0f6289896040516113b19291906137fe565b60405180910390a46113c88360008985858961200a565b6113d783600089898989612012565b50505050505050565b6113e861145e565b73ffffffffffffffffffffffffffffffffffffffff16611406610d19565b73ffffffffffffffffffffffffffffffffffffffff161461145c576040517f08c379a000000000000000000000000000000000000000000000000000000000815260040161145390613873565b60405180910390fd5b565b600033905090565b81518351146114aa576040517f08c379a00000000000000000000000000000000000000000000000000000000081526004016114a190613905565b60405180910390fd5b600073ffffffffffffffffffffffffffffffffffffffff168473ffffffffffffffffffffffffffffffffffffffff16141561151a576040517f08c379a000000000000000000000000000000000000000000000000000000000815260040161151190613997565b60405180910390fd5b600061152461145e565b9050611534818787878787612002565b60005b84518110156116e557600085828151811061155557611554613427565b5b60200260200101519050600085838151811061157457611573613427565b5b60200260200101519050600080600084815260200190815260200160002060008b73ffffffffffffffffffffffffffffffffffffffff1673ffffffffffffffffffffffffffffffffffffffff16815260200190815260200160002054905081811015611615576040517f08c379a000000000000000000000000000000000000000000000000000000000815260040161160c90613a29565b60405180910390fd5b81810360008085815260200190815260200160002060008c73ffffffffffffffffffffffffffffffffffffffff1673ffffffffffffffffffffffffffffffffffffffff168152602001908152602001600020819055508160008085815260200190815260200160002060008b73ffffffffffffffffffffffffffffffffffffffff1673ffffffffffffffffffffffffffffffffffffffff16815260200190815260200160002060008282546116ca91906133d1565b92505081905550505050806116de906134b9565b9050611537565b508473ffffffffffffffffffffffffffffffffffffffff168673ffffffffffffffffffffffffffffffffffffffff168273ffffffffffffffffffffffffffffffffffffffff167f4a39dc06d4c0dbc64b70af90fd698a233a518aa5d07e595d983b8c0526c8f7fb878760405161175c929190613a49565b60405180910390a461177281878787878761200a565b6117808187878787876121f9565b505050505050565b6117906123e0565b6000600360006101000a81548160ff0219169083151502179055507f5db9ee0a495bf2e6ff9c91a7834c1ba4fdd244a5e8aa4e537bd38aeae4b073aa6117d461145e565b6040516117e19190612e4e565b60405180910390a1565b8060029080519060200190611801929190612496565b5050565b6000600360019054906101000a900473ffffffffffffffffffffffffffffffffffffffff16905081600360016101000a81548173ffffffffffffffffffffffffffffffffffffffff021916908373ffffffffffffffffffffffffffffffffffffffff1602179055508173ffffffffffffffffffffffffffffffffffffffff168173ffffffffffffffffffffffffffffffffffffffff167f8be0079c531659141344cd1fd0a4f28419497f9722a3daafe3b4186f6b6457e060405160405180910390a35050565b6118d3612429565b6001600360006101000a81548160ff0219169083151502179055507f62e78cea01bee320cd4e420270b5ea74000d11b0c9f74754ebdbfc544b05a25861191761145e565b6040516119249190612e4e565b60405180910390a1565b8173ffffffffffffffffffffffffffffffffffffffff168373ffffffffffffffffffffffffffffffffffffffff16141561199d576040517f08c379a000000000000000000000000000000000000000000000000000000000815260040161199490613af2565b60405180910390fd5b80600160008573ffffffffffffffffffffffffffffffffffffffff1673ffffffffffffffffffffffffffffffffffffffff16815260200190815260200160002060008473ffffffffffffffffffffffffffffffffffffffff1673ffffffffffffffffffffffffffffffffffffffff16815260200190815260200160002060006101000a81548160ff0219169083151502179055508173ffffffffffffffffffffffffffffffffffffffff168373ffffffffffffffffffffffffffffffffffffffff167f17307eab39ab6107e8899845ad3d59bd9653f200f220920489ca2b5937696c3183604051611a8e91906126eb565b60405180910390a3505050565b6001816000016000828254019250508190555050565b600081600001549050919050565b600073ffffffffffffffffffffffffffffffffffffffff168473ffffffffffffffffffffffffffffffffffffffff161415611b2f576040517f08c379a0000000000000000000000000000000000000000000000000000000008152600401611b26906137de565b60405180910390fd5b8151835114611b73576040517f08c379a0000000000000000000000000000000000000000000000000000000008152600401611b6a90613905565b60405180910390fd5b6000611b7d61145e565b9050611b8e81600087878787612002565b60005b8451811015611c4757838181518110611bad57611bac613427565b5b6020026020010151600080878481518110611bcb57611bca613427565b5b6020026020010151815260200190815260200160002060008873ffffffffffffffffffffffffffffffffffffffff1673ffffffffffffffffffffffffffffffffffffffff1681526020019081526020016000206000828254611c2d91906133d1565b925050819055508080611c3f906134b9565b915050611b91565b508473ffffffffffffffffffffffffffffffffffffffff16600073ffffffffffffffffffffffffffffffffffffffff168273ffffffffffffffffffffffffffffffffffffffff167f4a39dc06d4c0dbc64b70af90fd698a233a518aa5d07e595d983b8c0526c8f7fb8787604051611cbf929190613a49565b60405180910390a4611cd68160008787878761200a565b611ce5816000878787876121f9565b5050505050565b600073ffffffffffffffffffffffffffffffffffffffff168473ffffffffffffffffffffffffffffffffffffffff161415611d5c576040517f08c379a0000000000000000000000000000000000000000000000000000000008152600401611d5390613997565b60405180910390fd5b6000611d6661145e565b90506000611d7385611f88565b90506000611d8085611f88565b9050611d90838989858589612002565b600080600088815260200190815260200160002060008a73ffffffffffffffffffffffffffffffffffffffff1673ffffffffffffffffffffffffffffffffffffffff16815260200190815260200160002054905085811015611e27576040517f08c379a0000000000000000000000000000000000000000000000000000000008152600401611e1e90613a29565b60405180910390fd5b85810360008089815260200190815260200160002060008b73ffffffffffffffffffffffffffffffffffffffff1673ffffffffffffffffffffffffffffffffffffffff168152602001908152602001600020819055508560008089815260200190815260200160002060008a73ffffffffffffffffffffffffffffffffffffffff1673ffffffffffffffffffffffffffffffffffffffff1681526020019081526020016000206000828254611edc91906133d1565b925050819055508773ffffffffffffffffffffffffffffffffffffffff168973ffffffffffffffffffffffffffffffffffffffff168573ffffffffffffffffffffffffffffffffffffffff167fc3d58168c5ae7397731d063d5bbf3d657854427343f4c083240f7aacaa2d0f628a8a604051611f599291906137fe565b60405180910390a4611f6f848a8a86868a61200a565b611f7d848a8a8a8a8a612012565b505050505050505050565b60606000600167ffffffffffffffff811115611fa757611fa6612873565b5b604051908082528060200260200182016040528015611fd55781602001602082028036833780820191505090505b5090508281600081518110611fed57611fec613427565b5b60200260200101818152505080915050919050565b505050505050565b505050505050565b6120318473ffffffffffffffffffffffffffffffffffffffff16612473565b156121f1578373ffffffffffffffffffffffffffffffffffffffff1663f23a6e6187878686866040518663ffffffff1660e01b8152600401612077959493929190613b67565b602060405180830381600087803b15801561209157600080fd5b505af19250505080156120c257506040513d601f19601f820116820180604052508101906120bf9190613bd6565b60015b612168576120ce613c10565b806308c379a0141561212b57506120e3613c32565b806120ee575061212d565b806040517f08c379a000000000000000000000000000000000000000000000000000000000815260040161212291906127cc565b60405180910390fd5b505b6040517f08c379a000000000000000000000000000000000000000000000000000000000815260040161215f90613d3a565b60405180910390fd5b63f23a6e6160e01b7bffffffffffffffffffffffffffffffffffffffffffffffffffffffff1916817bffffffffffffffffffffffffffffffffffffffffffffffffffffffff1916146121ef576040517f08c379a00000000000000000000000000000000000000000000000000000000081526004016121e690613dcc565b60405180910390fd5b505b505050505050565b6122188473ffffffffffffffffffffffffffffffffffffffff16612473565b156123d8578373ffffffffffffffffffffffffffffffffffffffff1663bc197c8187878686866040518663ffffffff1660e01b815260040161225e959493929190613dec565b602060405180830381600087803b15801561227857600080fd5b505af19250505080156122a957506040513d601f19601f820116820180604052508101906122a69190613bd6565b60015b61234f576122b5613c10565b806308c379a0141561231257506122ca613c32565b806122d55750612314565b806040517f08c379a000000000000000000000000000000000000000000000000000000000815260040161230991906127cc565b60405180910390fd5b505b6040517f08c379a000000000000000000000000000000000000000000000000000000000815260040161234690613d3a565b60405180910390fd5b63bc197c8160e01b7bffffffffffffffffffffffffffffffffffffffffffffffffffffffff1916817bffffffffffffffffffffffffffffffffffffffffffffffffffffffff1916146123d6576040517f08c379a00000000000000000000000000000000000000000000000000000000081526004016123cd90613dcc565b60405180910390fd5b505b505050505050565b6123e8610c51565b612427576040517f08c379a000000000000000000000000000000000000000000000000000000000815260040161241e90613ea0565b60405180910390fd5b565b612431610c51565b15612471576040517f08c379a000000000000000000000000000000000000000000000000000000000815260040161246890613f0c565b60405180910390fd5b565b6000808273ffffffffffffffffffffffffffffffffffffffff163b119050919050565b8280546124a2906131a7565b90600052602060002090601f0160209004810192826124c4576000855561250b565b82601f106124dd57805160ff191683800117855561250b565b8280016001018555821561250b579182015b8281111561250a5782518255916020019190600101906124ef565b5b509050612518919061251c565b5090565b5b8082111561253557600081600090555060010161251d565b5090565b6000604051905090565b600080fd5b600080fd5b600073ffffffffffffffffffffffffffffffffffffffff82169050919050565b60006125788261254d565b9050919050565b6125888161256d565b811461259357600080fd5b50565b6000813590506125a58161257f565b92915050565b6000819050919050565b6125be816125ab565b81146125c957600080fd5b50565b6000813590506125db816125b5565b92915050565b600080604083850312156125f8576125f7612543565b5b600061260685828601612596565b9250506020612617858286016125cc565b9150509250929050565b61262a816125ab565b82525050565b60006020820190506126456000830184612621565b92915050565b60007fffffffff0000000000000000000000000000000000000000000000000000000082169050919050565b6126808161264b565b811461268b57600080fd5b50565b60008135905061269d81612677565b92915050565b6000602082840312156126b9576126b8612543565b5b60006126c78482850161268e565b91505092915050565b60008115159050919050565b6126e5816126d0565b82525050565b600060208201905061270060008301846126dc565b92915050565b60006020828403121561271c5761271b612543565b5b600061272a848285016125cc565b91505092915050565b600081519050919050565b600082825260208201905092915050565b60005b8381101561276d578082015181840152602081019050612752565b8381111561277c576000848401525b50505050565b6000601f19601f8301169050919050565b600061279e82612733565b6127a8818561273e565b93506127b881856020860161274f565b6127c181612782565b840191505092915050565b600060208201905081810360008301526127e68184612793565b905092915050565b60008060006060848603121561280757612806612543565b5b600061281586828701612596565b9350506020612826868287016125cc565b9250506040612837868287016125cc565b9150509250925092565b60006020828403121561285757612856612543565b5b600061286584828501612596565b91505092915050565b600080fd5b7f4e487b7100000000000000000000000000000000000000000000000000000000600052604160045260246000fd5b6128ab82612782565b810181811067ffffffffffffffff821117156128ca576128c9612873565b5b80604052505050565b60006128dd612539565b90506128e982826128a2565b919050565b600067ffffffffffffffff82111561290957612908612873565b5b602082029050602081019050919050565b600080fd5b600061293261292d846128ee565b6128d3565b905080838252602082019050602084028301858111156129555761295461291a565b5b835b8181101561297e578061296a88826125cc565b845260208401935050602081019050612957565b5050509392505050565b600082601f83011261299d5761299c61286e565b5b81356129ad84826020860161291f565b91505092915050565b600080fd5b600067ffffffffffffffff8211156129d6576129d5612873565b5b6129df82612782565b9050602081019050919050565b82818337600083830152505050565b6000612a0e612a09846129bb565b6128d3565b905082815260208101848484011115612a2a57612a296129b6565b5b612a358482856129ec565b509392505050565b600082601f830112612a5257612a5161286e565b5b8135612a628482602086016129fb565b91505092915050565b600080600080600060a08688031215612a8757612a86612543565b5b6000612a9588828901612596565b9550506020612aa688828901612596565b945050604086013567ffffffffffffffff811115612ac757612ac6612548565b5b612ad388828901612988565b935050606086013567ffffffffffffffff811115612af457612af3612548565b5b612b0088828901612988565b925050608086013567ffffffffffffffff811115612b2157612b20612548565b5b612b2d88828901612a3d565b9150509295509295909350565b600067ffffffffffffffff821115612b5557612b54612873565b5b602082029050602081019050919050565b6000612b79612b7484612b3a565b6128d3565b90508083825260208201905060208402830185811115612b9c57612b9b61291a565b5b835b81811015612bc55780612bb18882612596565b845260208401935050602081019050612b9e565b5050509392505050565b600082601f830112612be457612be361286e565b5b8135612bf4848260208601612b66565b91505092915050565b60008060408385031215612c1457612c13612543565b5b600083013567ffffffffffffffff811115612c3257612c31612548565b5b612c3e85828601612bcf565b925050602083013567ffffffffffffffff811115612c5f57612c5e612548565b5b612c6b85828601612988565b9150509250929050565b600081519050919050565b600082825260208201905092915050565b6000819050602082019050919050565b612caa816125ab565b82525050565b6000612cbc8383612ca1565b60208301905092915050565b6000602082019050919050565b6000612ce082612c75565b612cea8185612c80565b9350612cf583612c91565b8060005b83811015612d26578151612d0d8882612cb0565b9750612d1883612cc8565b925050600181019050612cf9565b5085935050505092915050565b60006020820190508181036000830152612d4d8184612cd5565b905092915050565b600067ffffffffffffffff821115612d7057612d6f612873565b5b612d7982612782565b9050602081019050919050565b6000612d99612d9484612d55565b6128d3565b905082815260208101848484011115612db557612db46129b6565b5b612dc08482856129ec565b509392505050565b600082601f830112612ddd57612ddc61286e565b5b8135612ded848260208601612d86565b91505092915050565b600060208284031215612e0c57612e0b612543565b5b600082013567ffffffffffffffff811115612e2a57612e29612548565b5b612e3684828501612dc8565b91505092915050565b612e488161256d565b82525050565b6000602082019050612e636000830184612e3f565b92915050565b612e72816126d0565b8114612e7d57600080fd5b50565b600081359050612e8f81612e69565b92915050565b60008060408385031215612eac57612eab612543565b5b6000612eba85828601612596565b9250506020612ecb85828601612e80565b9150509250929050565b600080600060608486031215612eee57612eed612543565b5b6000612efc86828701612596565b9350506020612f0d868287016125cc565b925050604084013567ffffffffffffffff811115612f2e57612f2d612548565b5b612f3a86828701612dc8565b9150509250925092565b600080600060608486031215612f5d57612f5c612543565b5b6000612f6b86828701612596565b935050602084013567ffffffffffffffff811115612f8c57612f8b612548565b5b612f9886828701612988565b925050604084013567ffffffffffffffff811115612fb957612fb8612548565b5b612fc586828701612988565b9150509250925092565b60008060408385031215612fe657612fe5612543565b5b6000612ff485828601612596565b925050602061300585828601612596565b9150509250929050565b6000806040838503121561302657613025612543565b5b6000613034858286016125cc565b9250506020613045858286016125cc565b9150509250929050565b600080600080600060a0868803121561306b5761306a612543565b5b600061307988828901612596565b955050602061308a88828901612596565b945050604061309b888289016125cc565b93505060606130ac888289016125cc565b925050608086013567ffffffffffffffff8111156130cd576130cc612548565b5b6130d988828901612a3d565b9150509295509295909350565b7f455243313135353a2061646472657373207a65726f206973206e6f742061207660008201527f616c6964206f776e657200000000000000000000000000000000000000000000602082015250565b6000613142602a8361273e565b915061314d826130e6565b604082019050919050565b6000602082019050818103600083015261317181613135565b9050919050565b7f4e487b7100000000000000000000000000000000000000000000000000000000600052602260045260246000fd5b600060028204905060018216806131bf57607f821691505b602082108114156131d3576131d2613178565b5b50919050565b7f556e617574686f72697a65000000000000000000000000000000000000000000600082015250565b600061320f600b8361273e565b915061321a826131d9565b602082019050919050565b6000602082019050818103600083015261323e81613202565b9050919050565b600081905092915050565b50565b6000613260600083613245565b915061326b82613250565b600082019050919050565b600061328182613253565b9150819050919050565b60008190508160005260206000209050919050565b600081546132ad816131a7565b6132b78186613245565b945060018216600081146132d257600181146132e357613316565b60ff19831686528186019350613316565b6132ec8561328b565b60005b8381101561330e578154818901526001820191506020810190506132ef565b838801955050505b50505092915050565b600061332b82846132a0565b915081905092915050565b7f546f6b656e206e6f7420666f756e6420617661696c61626c6521000000000000600082015250565b600061336c601a8361273e565b915061337782613336565b602082019050919050565b6000602082019050818103600083015261339b8161335f565b9050919050565b7f4e487b7100000000000000000000000000000000000000000000000000000000600052601160045260246000fd5b60006133dc826125ab565b91506133e7836125ab565b9250827fffffffffffffffffffffffffffffffffffffffffffffffffffffffffffffffff0382111561341c5761341b6133a2565b5b828201905092915050565b7f4e487b7100000000000000000000000000000000000000000000000000000000600052603260045260246000fd5b6000613461826125ab565b915061346c836125ab565b92508282101561347f5761347e6133a2565b5b828203905092915050565b7f4e487b7100000000000000000000000000000000000000000000000000000000600052603160045260246000fd5b60006134c4826125ab565b91507fffffffffffffffffffffffffffffffffffffffffffffffffffffffffffffffff8214156134f7576134f66133a2565b5b600182019050919050565b7f455243313135353a2063616c6c6572206973206e6f7420746f6b656e206f776e60008201527f6572206e6f7220617070726f7665640000000000000000000000000000000000602082015250565b600061355e602f8361273e565b915061356982613502565b604082019050919050565b6000602082019050818103600083015261358d81613551565b9050919050565b7f455243313135353a206163636f756e747320616e6420696473206c656e67746860008201527f206d69736d617463680000000000000000000000000000000000000000000000602082015250565b60006135f060298361273e565b91506135fb82613594565b604082019050919050565b6000602082019050818103600083015261361f816135e3565b9050919050565b600061363182612733565b61363b8185613245565b935061364b81856020860161274f565b80840191505092915050565b60006136638284613626565b915081905092915050565b7f546f6b656e206e616d65206e6f7420617661696c61626c652100000000000000600082015250565b60006136a460198361273e565b91506136af8261366e565b602082019050919050565b600060208201905081810360008301526136d381613697565b9050919050565b7f4f776e61626c653a206e6577206f776e657220697320746865207a65726f206160008201527f6464726573730000000000000000000000000000000000000000000000000000602082015250565b600061373660268361273e565b9150613741826136da565b604082019050919050565b6000602082019050818103600083015261376581613729565b9050919050565b7f455243313135353a206d696e7420746f20746865207a65726f2061646472657360008201527f7300000000000000000000000000000000000000000000000000000000000000602082015250565b60006137c860218361273e565b91506137d38261376c565b604082019050919050565b600060208201905081810360008301526137f7816137bb565b9050919050565b60006040820190506138136000830185612621565b6138206020830184612621565b9392505050565b7f4f776e61626c653a2063616c6c6572206973206e6f7420746865206f776e6572600082015250565b600061385d60208361273e565b915061386882613827565b602082019050919050565b6000602082019050818103600083015261388c81613850565b9050919050565b7f455243313135353a2069647320616e6420616d6f756e7473206c656e6774682060008201527f6d69736d61746368000000000000000000000000000000000000000000000000602082015250565b60006138ef60288361273e565b91506138fa82613893565b604082019050919050565b6000602082019050818103600083015261391e816138e2565b9050919050565b7f455243313135353a207472616e7366657220746f20746865207a65726f20616460008201527f6472657373000000000000000000000000000000000000000000000000000000602082015250565b600061398160258361273e565b915061398c82613925565b604082019050919050565b600060208201905081810360008301526139b081613974565b9050919050565b7f455243313135353a20696e73756666696369656e742062616c616e636520666f60008201527f72207472616e7366657200000000000000000000000000000000000000000000602082015250565b6000613a13602a8361273e565b9150613a1e826139b7565b604082019050919050565b60006020820190508181036000830152613a4281613a06565b9050919050565b60006040820190508181036000830152613a638185612cd5565b90508181036020830152613a778184612cd5565b90509392505050565b7f455243313135353a2073657474696e6720617070726f76616c2073746174757360008201527f20666f722073656c660000000000000000000000000000000000000000000000602082015250565b6000613adc60298361273e565b9150613ae782613a80565b604082019050919050565b60006020820190508181036000830152613b0b81613acf565b9050919050565b600081519050919050565b600082825260208201905092915050565b6000613b3982613b12565b613b438185613b1d565b9350613b5381856020860161274f565b613b5c81612782565b840191505092915050565b600060a082019050613b7c6000830188612e3f565b613b896020830187612e3f565b613b966040830186612621565b613ba36060830185612621565b8181036080830152613bb58184613b2e565b90509695505050505050565b600081519050613bd081612677565b92915050565b600060208284031215613bec57613beb612543565b5b6000613bfa84828501613bc1565b91505092915050565b60008160e01c9050919050565b600060033d1115613c2f5760046000803e613c2c600051613c03565b90505b90565b600060443d1015613c4257613cc5565b613c4a612539565b60043d036004823e80513d602482011167ffffffffffffffff82111715613c72575050613cc5565b808201805167ffffffffffffffff811115613c905750505050613cc5565b80602083010160043d038501811115613cad575050505050613cc5565b613cbc826020018501866128a2565b82955050505050505b90565b7f455243313135353a207472616e7366657220746f206e6f6e204552433131353560008201527f526563656976657220696d706c656d656e746572000000000000000000000000602082015250565b6000613d2460348361273e565b9150613d2f82613cc8565b604082019050919050565b60006020820190508181036000830152613d5381613d17565b9050919050565b7f455243313135353a204552433131353552656365697665722072656a6563746560008201527f6420746f6b656e73000000000000000000000000000000000000000000000000602082015250565b6000613db660288361273e565b9150613dc182613d5a565b604082019050919050565b60006020820190508181036000830152613de581613da9565b9050919050565b600060a082019050613e016000830188612e3f565b613e0e6020830187612e3f565b8181036040830152613e208186612cd5565b90508181036060830152613e348185612cd5565b90508181036080830152613e488184613b2e565b90509695505050505050565b7f5061757361626c653a206e6f7420706175736564000000000000000000000000600082015250565b6000613e8a60148361273e565b9150613e9582613e54565b602082019050919050565b60006020820190508181036000830152613eb981613e7d565b9050919050565b7f5061757361626c653a2070617573656400000000000000000000000000000000600082015250565b6000613ef660108361273e565b9150613f0182613ec0565b602082019050919050565b60006020820190508181036000830152613f2581613ee9565b905091905056fea26469706673582212204341824c7dee498976a67c20e172132593ec82bcaa8095d579be494601cf330f64736f6c63430008090033516d596e4752457761744a646b6b596e426b484547685254636e4232524742334152735a52464b4261684837687a",
  "linkReferences": {},
  "deployedLinkReferences": {}
}